{
  "_format": "hh-sol-artifact-1",
  "contractName": "SecureVault",
  "sourceName": "contracts/SecureVault.sol",
  "abi": [
    {
      "inputs": [
        {
          "internalType": "address",
          "name": "_authManager",
          "type": "address"
        }
      ],
      "stateMutability": "nonpayable",
      "type": "constructor"
    },
    {
      "anonymous": false,
      "inputs": [
        {
          "indexed": true,
          "internalType": "address",
          "name": "sender",
          "type": "address"
        },
        {
          "indexed": false,
          "internalType": "uint256",
          "name": "amount",
          "type": "uint256"
        }
      ],
      "name": "Deposit",
      "type": "event"
    },
    {
      "anonymous": false,
      "inputs": [
        {
          "indexed": true,
          "internalType": "address",
          "name": "recipient",
          "type": "address"
        },
        {
          "indexed": false,
          "internalType": "uint256",
          "name": "amount",
          "type": "uint256"
        }
      ],
      "name": "Withdrawal",
      "type": "event"
    },
    {
      "inputs": [],
      "name": "authManager",
      "outputs": [
        {
          "internalType": "contract IAuthorizationManager",
          "name": "",
          "type": "address"
        }
      ],
      "stateMutability": "view",
      "type": "function"
    },
    {
      "inputs": [],
      "name": "totalBalance",
      "outputs": [
        {
          "internalType": "uint256",
          "name": "",
          "type": "uint256"
        }
      ],
      "stateMutability": "view",
      "type": "function"
    },
    {
      "inputs": [
        {
          "internalType": "address payable",
          "name": "recipient",
          "type": "address"
        },
        {
          "internalType": "uint256",
          "name": "amount",
          "type": "uint256"
        },
        {
          "internalType": "uint256",
          "name": "nonce",
          "type": "uint256"
        },
        {
          "internalType": "bytes32",
          "name": "authId",
          "type": "bytes32"
        },
        {
          "internalType": "bytes",
          "name": "signature",
          "type": "bytes"
        }
      ],
      "name": "withdraw",
      "outputs": [],
      "stateMutability": "nonpayable",
      "type": "function"
    },
    {
      "stateMutability": "payable",
      "type": "receive"
    }
  ],
  "bytecode": "0x60806040523480156200001157600080fd5b5060405162000e5638038062000e5683398181016040528101906200003791906200015a565b600073ffffffffffffffffffffffffffffffffffffffff168173ffffffffffffffffffffffffffffffffffffffff1603620000a9576040517f08c379a0000000000000000000000000000000000000000000000000000000008152600401620000a090620001ed565b60405180910390fd5b806000806101000a81548173ffffffffffffffffffffffffffffffffffffffff021916908373ffffffffffffffffffffffffffffffffffffffff160217905550506200020f565b600080fd5b600073ffffffffffffffffffffffffffffffffffffffff82169050919050565b60006200012282620000f5565b9050919050565b620001348162000115565b81146200014057600080fd5b50565b600081519050620001548162000129565b92915050565b600060208284031215620001735762000172620000f0565b5b6000620001838482850162000143565b91505092915050565b600082825260208201905092915050565b7f496e76616c69642061757468206d616e61676572000000000000000000000000600082015250565b6000620001d56014836200018c565b9150620001e2826200019d565b602082019050919050565b600060208201905081810360008301526200020881620001c6565b9050919050565b610c37806200021f6000396000f3fe6080604052600436106100385760003560e01c806358ceaaf3146100ee578063920811b214610117578063ad7a672f14610142576100e9565b366100e95760003411610080576040517f08c379a0000000000000000000000000000000000000000000000000000000008152600401610077906104f3565b60405180910390fd5b3460016000828254610092919061054c565b925050819055503373ffffffffffffffffffffffffffffffffffffffff167fe1fffcc4923d04b559f4d29a8bfc6cda04eb5b0d3c460751c2402c5c5cc9109c346040516100df919061058f565b60405180910390a2005b600080fd5b3480156100fa57600080fd5b50610115600480360381019061011091906106d9565b61016d565b005b34801561012357600080fd5b5061012c61046c565b60405161013991906107d2565b60405180910390f35b34801561014e57600080fd5b50610157610490565b604051610164919061058f565b60405180910390f35b600073ffffffffffffffffffffffffffffffffffffffff168673ffffffffffffffffffffffffffffffffffffffff16036101dc576040517f08c379a00000000000000000000000000000000000000000000000000000000081526004016101d390610839565b60405180910390fd5b6000851161021f576040517f08c379a0000000000000000000000000000000000000000000000000000000008152600401610216906108a5565b60405180910390fd5b84471015610262576040517f08c379a000000000000000000000000000000000000000000000000000000000815260040161025990610911565b60405180910390fd5b60008060009054906101000a900473ffffffffffffffffffffffffffffffffffffffff1673ffffffffffffffffffffffffffffffffffffffff166347c960d8308989898989896040518863ffffffff1660e01b81526004016102ca97969594939291906109e0565b6020604051808303816000875af11580156102e9573d6000803e3d6000fd5b505050506040513d601f19601f8201168201806040525081019061030d9190610a82565b90508061034f576040517f08c379a000000000000000000000000000000000000000000000000000000000815260040161034690610afb565b60405180910390fd5b85600160008282546103619190610b1b565b9250508190555060008773ffffffffffffffffffffffffffffffffffffffff168760405161038e90610b80565b60006040518083038185875af1925050503d80600081146103cb576040519150601f19603f3d011682016040523d82523d6000602084013e6103d0565b606091505b5050905080610414576040517f08c379a000000000000000000000000000000000000000000000000000000000815260040161040b90610be1565b60405180910390fd5b8773ffffffffffffffffffffffffffffffffffffffff167f7fcf532c15f0a6db0bd6d0e038bea71d30d808c7d98cb3bf7268a95bf5081b658860405161045a919061058f565b60405180910390a25050505050505050565b60008054906101000a900473ffffffffffffffffffffffffffffffffffffffff1681565b60015481565b600082825260208201905092915050565b7f5a65726f2d76616c7565206465706f7369740000000000000000000000000000600082015250565b60006104dd601283610496565b91506104e8826104a7565b602082019050919050565b6000602082019050818103600083015261050c816104d0565b9050919050565b6000819050919050565b7f4e487b7100000000000000000000000000000000000000000000000000000000600052601160045260246000fd5b600061055782610513565b915061056283610513565b925082820190508082111561057a5761057961051d565b5b92915050565b61058981610513565b82525050565b60006020820190506105a46000830184610580565b92915050565b600080fd5b600080fd5b600073ffffffffffffffffffffffffffffffffffffffff82169050919050565b60006105df826105b4565b9050919050565b6105ef816105d4565b81146105fa57600080fd5b50565b60008135905061060c816105e6565b92915050565b61061b81610513565b811461062657600080fd5b50565b60008135905061063881610612565b92915050565b6000819050919050565b6106518161063e565b811461065c57600080fd5b50565b60008135905061066e81610648565b92915050565b600080fd5b600080fd5b600080fd5b60008083601f84011261069957610698610674565b5b8235905067ffffffffffffffff8111156106b6576106b5610679565b5b6020830191508360018202830111156106d2576106d161067e565b5b9250929050565b60008060008060008060a087890312156106f6576106f56105aa565b5b600061070489828a016105fd565b965050602061071589828a01610629565b955050604061072689828a01610629565b945050606061073789828a0161065f565b935050608087013567ffffffffffffffff811115610758576107576105af565b5b61076489828a01610683565b92509250509295509295509295565b6000819050919050565b600061079861079361078e846105b4565b610773565b6105b4565b9050919050565b60006107aa8261077d565b9050919050565b60006107bc8261079f565b9050919050565b6107cc816107b1565b82525050565b60006020820190506107e760008301846107c3565b92915050565b7f496e76616c696420726563697069656e74000000000000000000000000000000600082015250565b6000610823601183610496565b915061082e826107ed565b602082019050919050565b6000602082019050818103600083015261085281610816565b9050919050565b7f496e76616c696420616d6f756e74000000000000000000000000000000000000600082015250565b600061088f600e83610496565b915061089a82610859565b602082019050919050565b600060208201905081810360008301526108be81610882565b9050919050565b7f496e73756666696369656e74207661756c742062616c616e6365000000000000600082015250565b60006108fb601a83610496565b9150610906826108c5565b602082019050919050565b6000602082019050818103600083015261092a816108ee565b9050919050565b600061093c826105b4565b9050919050565b61094c81610931565b82525050565b600061095d8261079f565b9050919050565b61096d81610952565b82525050565b61097c8161063e565b82525050565b600082825260208201905092915050565b82818337600083830152505050565b6000601f19601f8301169050919050565b60006109bf8385610982565b93506109cc838584610993565b6109d5836109a2565b840190509392505050565b600060c0820190506109f5600083018a610943565b610a026020830189610964565b610a0f6040830188610580565b610a1c6060830187610580565b610a296080830186610973565b81810360a0830152610a3c8184866109b3565b905098975050505050505050565b60008115159050919050565b610a5f81610a4a565b8114610a6a57600080fd5b50565b600081519050610a7c81610a56565b92915050565b600060208284031215610a9857610a976105aa565b5b6000610aa684828501610a6d565b91505092915050565b7f417574686f72697a6174696f6e206661696c6564000000000000000000000000600082015250565b6000610ae5601483610496565b9150610af082610aaf565b602082019050919050565b60006020820190508181036000830152610b1481610ad8565b9050919050565b6000610b2682610513565b9150610b3183610513565b9250828203905081811115610b4957610b4861051d565b5b92915050565b600081905092915050565b50565b6000610b6a600083610b4f565b9150610b7582610b5a565b600082019050919050565b6000610b8b82610b5d565b9150819050919050565b7f455448207472616e73666572206661696c656400000000000000000000000000600082015250565b6000610bcb601383610496565b9150610bd682610b95565b602082019050919050565b60006020820190508181036000830152610bfa81610bbe565b905091905056fea2646970667358221220e6cd80e33a3075fc7565b1b88812fa7e6f0612a883164517d53954d4303fed4664736f6c63430008140033",
  "linkReferences": {},
  "deployedLinkReferences": {}
}