{
  "_format": "hh-sol-artifact-1",
  "contractName": "AuthorizationManager",
  "sourceName": "contracts/AuthorizationManager.sol",
  "abi": [
    {
      "inputs": [
        {
          "internalType": "address",
          "name": "_signer",
          "type": "address"
        }
      ],
      "stateMutability": "nonpayable",
      "type": "constructor"
    },
    {
      "anonymous": false,
      "inputs": [
        {
          "indexed": true,
          "internalType": "bytes32",
          "name": "authorizationId",
          "type": "bytes32"
        },
        {
          "indexed": true,
          "internalType": "address",
          "name": "vault",
          "type": "address"
        },
        {
          "indexed": true,
          "internalType": "address",
          "name": "recipient",
          "type": "address"
        },
        {
          "indexed": false,
          "internalType": "uint256",
          "name": "amount",
          "type": "uint256"
        },
        {
          "indexed": false,
          "internalType": "uint256",
          "name": "chainId",
          "type": "uint256"
        }
      ],
      "name": "AuthorizationConsumed",
      "type": "event"
    },
    {
      "inputs": [
        {
          "internalType": "bytes32",
          "name": "",
          "type": "bytes32"
        }
      ],
      "name": "authorizationUsed",
      "outputs": [
        {
          "internalType": "bool",
          "name": "",
          "type": "bool"
        }
      ],
      "stateMutability": "view",
      "type": "function"
    },
    {
      "inputs": [],
      "name": "signer",
      "outputs": [
        {
          "internalType": "address",
          "name": "",
          "type": "address"
        }
      ],
      "stateMutability": "view",
      "type": "function"
    },
    {
      "inputs": [
        {
          "internalType": "address",
          "name": "vault",
          "type": "address"
        },
        {
          "internalType": "address",
          "name": "recipient",
          "type": "address"
        },
        {
          "internalType": "uint256",
          "name": "amount",
          "type": "uint256"
        },
        {
          "internalType": "uint256",
          "name": "chainId",
          "type": "uint256"
        },
        {
          "internalType": "bytes32",
          "name": "authorizationId",
          "type": "bytes32"
        },
        {
          "internalType": "bytes",
          "name": "signature",
          "type": "bytes"
        }
      ],
      "name": "verifyAuthorization",
      "outputs": [
        {
          "internalType": "bool",
          "name": "success",
          "type": "bool"
        }
      ],
      "stateMutability": "nonpayable",
      "type": "function"
    }
  ],
  "bytecode": "0x60a06040523480156200001157600080fd5b5060405162000e2538038062000e2583398181016040528101906200003791906200014e565b600073ffffffffffffffffffffffffffffffffffffffff168173ffffffffffffffffffffffffffffffffffffffff1603620000a9576040517f08c379a0000000000000000000000000000000000000000000000000000000008152600401620000a090620001e1565b60405180910390fd5b8073ffffffffffffffffffffffffffffffffffffffff1660808173ffffffffffffffffffffffffffffffffffffffff16815250505062000203565b600080fd5b600073ffffffffffffffffffffffffffffffffffffffff82169050919050565b60006200011682620000e9565b9050919050565b620001288162000109565b81146200013457600080fd5b50565b60008151905062000148816200011d565b92915050565b600060208284031215620001675762000166620000e4565b5b6000620001778482850162000137565b91505092915050565b600082825260208201905092915050565b7f496e76616c6964207369676e6572000000000000000000000000000000000000600082015250565b6000620001c9600e8362000180565b9150620001d68262000191565b602082019050919050565b60006020820190508181036000830152620001fc81620001ba565b9050919050565b608051610c00620002256000396000818160c601526101ec0152610c006000f3fe608060405234801561001057600080fd5b50600436106100415760003560e01c8063238ac9331461004657806347c960d814610064578063a605e08e14610094575b600080fd5b61004e6100c4565b60405161005b91906104f7565b60405180910390f35b61007e60048036038101906100799190610619565b6100e8565b60405161008b91906106e3565b60405180910390f35b6100ae60048036038101906100a991906106fe565b610369565b6040516100bb91906106e3565b60405180910390f35b7f000000000000000000000000000000000000000000000000000000000000000081565b600046851461012c576040517f08c379a000000000000000000000000000000000000000000000000000000000815260040161012390610788565b60405180910390fd5b60008085815260200190815260200160002060009054906101000a900460ff161561018c576040517f08c379a0000000000000000000000000000000000000000000000000000000008152600401610183906107f4565b60405180910390fd5b600088888888886040516020016101a795949392919061089e565b6040516020818303038152906040528051906020012090506000816040516020016101d29190610954565b6040516020818303038152906040528051906020012090507f000000000000000000000000000000000000000000000000000000000000000073ffffffffffffffffffffffffffffffffffffffff1661026f8287878080601f016020809104026020016040519081016040528093929190818152602001838380828437600081840152601f19601f82011690508083019250505050505050610389565b73ffffffffffffffffffffffffffffffffffffffff16146102c5576040517f08c379a00000000000000000000000000000000000000000000000000000000081526004016102bc906109c6565b60405180910390fd5b600160008088815260200190815260200160002060006101000a81548160ff0219169083151502179055508873ffffffffffffffffffffffffffffffffffffffff168a73ffffffffffffffffffffffffffffffffffffffff16877fac08097abfb5619cfbc5156dfe477b5f9322d80dba640f4876a5be634f592bfc8b8b6040516103509291906109f5565b60405180910390a4600192505050979650505050505050565b60006020528060005260406000206000915054906101000a900460ff1681565b600060418251146103cf576040517f08c379a00000000000000000000000000000000000000000000000000000000081526004016103c690610a6a565b60405180910390fd5b60008060006020850151925060408501519150606085015160001a9050601b8160ff16101561040857601b816104059190610ac6565b90505b601b8160ff16148061041d5750601c8160ff16145b61045c576040517f08c379a000000000000000000000000000000000000000000000000000000000815260040161045390610b47565b60405180910390fd5b6001868285856040516000815260200160405260405161047f9493929190610b85565b6020604051602081039080840390855afa1580156104a1573d6000803e3d6000fd5b50505060206040510351935050505092915050565b600073ffffffffffffffffffffffffffffffffffffffff82169050919050565b60006104e1826104b6565b9050919050565b6104f1816104d6565b82525050565b600060208201905061050c60008301846104e8565b92915050565b600080fd5b600080fd5b610525816104d6565b811461053057600080fd5b50565b6000813590506105428161051c565b92915050565b6000819050919050565b61055b81610548565b811461056657600080fd5b50565b60008135905061057881610552565b92915050565b6000819050919050565b6105918161057e565b811461059c57600080fd5b50565b6000813590506105ae81610588565b92915050565b600080fd5b600080fd5b600080fd5b60008083601f8401126105d9576105d86105b4565b5b8235905067ffffffffffffffff8111156105f6576105f56105b9565b5b602083019150836001820283011115610612576106116105be565b5b9250929050565b600080600080600080600060c0888a03121561063857610637610512565b5b60006106468a828b01610533565b97505060206106578a828b01610533565b96505060406106688a828b01610569565b95505060606106798a828b01610569565b945050608061068a8a828b0161059f565b93505060a088013567ffffffffffffffff8111156106ab576106aa610517565b5b6106b78a828b016105c3565b925092505092959891949750929550565b60008115159050919050565b6106dd816106c8565b82525050565b60006020820190506106f860008301846106d4565b92915050565b60006020828403121561071457610713610512565b5b60006107228482850161059f565b91505092915050565b600082825260208201905092915050565b7f496e76616c696420636861696e00000000000000000000000000000000000000600082015250565b6000610772600d8361072b565b915061077d8261073c565b602082019050919050565b600060208201905081810360008301526107a181610765565b9050919050565b7f417574686f72697a6174696f6e20616c72656164792075736564000000000000600082015250565b60006107de601a8361072b565b91506107e9826107a8565b602082019050919050565b6000602082019050818103600083015261080d816107d1565b9050919050565b60008160601b9050919050565b600061082c82610814565b9050919050565b600061083e82610821565b9050919050565b610856610851826104d6565b610833565b82525050565b6000819050919050565b61087761087282610548565b61085c565b82525050565b6000819050919050565b6108986108938261057e565b61087d565b82525050565b60006108aa8288610845565b6014820191506108ba8287610845565b6014820191506108ca8286610866565b6020820191506108da8285610866565b6020820191506108ea8284610887565b6020820191508190509695505050505050565b600081905092915050565b7f19457468657265756d205369676e6564204d6573736167653a0a333200000000600082015250565b600061093e601c836108fd565b915061094982610908565b601c82019050919050565b600061095f82610931565b915061096b8284610887565b60208201915081905092915050565b7f496e76616c6964207369676e6174757265000000000000000000000000000000600082015250565b60006109b060118361072b565b91506109bb8261097a565b602082019050919050565b600060208201905081810360008301526109df816109a3565b9050919050565b6109ef81610548565b82525050565b6000604082019050610a0a60008301856109e6565b610a1760208301846109e6565b9392505050565b7f496e76616c6964207369676e6174757265206c656e6774680000000000000000600082015250565b6000610a5460188361072b565b9150610a5f82610a1e565b602082019050919050565b60006020820190508181036000830152610a8381610a47565b9050919050565b600060ff82169050919050565b7f4e487b7100000000000000000000000000000000000000000000000000000000600052601160045260246000fd5b6000610ad182610a8a565b9150610adc83610a8a565b9250828201905060ff811115610af557610af4610a97565b5b92915050565b7f496e76616c696420760000000000000000000000000000000000000000000000600082015250565b6000610b3160098361072b565b9150610b3c82610afb565b602082019050919050565b60006020820190508181036000830152610b6081610b24565b9050919050565b610b708161057e565b82525050565b610b7f81610a8a565b82525050565b6000608082019050610b9a6000830187610b67565b610ba76020830186610b76565b610bb46040830185610b67565b610bc16060830184610b67565b9594505050505056fea26469706673582212209e16b16a53ed8f8b62054e15a0dd174a8cedb949b241bb55c3513acbfb3157dc64736f6c63430008140033",
  "linkReferences": {},
  "deployedLinkReferences": {}
}